{
  "contractName": "YouTubeToken",
  "abi": [
    {
      "inputs": [
        {
          "internalType": "address",
          "name": "initialOwner",
          "type": "address"
        }
      ],
      "stateMutability": "nonpayable",
      "type": "constructor"
    },
    {
      "inputs": [
        {
          "internalType": "address",
          "name": "spender",
          "type": "address"
        },
        {
          "internalType": "uint256",
          "name": "allowance",
          "type": "uint256"
        },
        {
          "internalType": "uint256",
          "name": "needed",
          "type": "uint256"
        }
      ],
      "name": "ERC20InsufficientAllowance",
      "type": "error"
    },
    {
      "inputs": [
        {
          "internalType": "address",
          "name": "sender",
          "type": "address"
        },
        {
          "internalType": "uint256",
          "name": "balance",
          "type": "uint256"
        },
        {
          "internalType": "uint256",
          "name": "needed",
          "type": "uint256"
        }
      ],
      "name": "ERC20InsufficientBalance",
      "type": "error"
    },
    {
      "inputs": [
        {
          "internalType": "address",
          "name": "approver",
          "type": "address"
        }
      ],
      "name": "ERC20InvalidApprover",
      "type": "error"
    },
    {
      "inputs": [
        {
          "internalType": "address",
          "name": "receiver",
          "type": "address"
        }
      ],
      "name": "ERC20InvalidReceiver",
      "type": "error"
    },
    {
      "inputs": [
        {
          "internalType": "address",
          "name": "sender",
          "type": "address"
        }
      ],
      "name": "ERC20InvalidSender",
      "type": "error"
    },
    {
      "inputs": [
        {
          "internalType": "address",
          "name": "spender",
          "type": "address"
        }
      ],
      "name": "ERC20InvalidSpender",
      "type": "error"
    },
    {
      "inputs": [
        {
          "internalType": "address",
          "name": "owner",
          "type": "address"
        }
      ],
      "name": "OwnableInvalidOwner",
      "type": "error"
    },
    {
      "inputs": [
        {
          "internalType": "address",
          "name": "account",
          "type": "address"
        }
      ],
      "name": "OwnableUnauthorizedAccount",
      "type": "error"
    },
    {
      "anonymous": false,
      "inputs": [
        {
          "indexed": true,
          "internalType": "address",
          "name": "owner",
          "type": "address"
        },
        {
          "indexed": true,
          "internalType": "address",
          "name": "spender",
          "type": "address"
        },
        {
          "indexed": false,
          "internalType": "uint256",
          "name": "value",
          "type": "uint256"
        }
      ],
      "name": "Approval",
      "type": "event"
    },
    {
      "anonymous": false,
      "inputs": [
        {
          "indexed": true,
          "internalType": "address",
          "name": "previousOwner",
          "type": "address"
        },
        {
          "indexed": true,
          "internalType": "address",
          "name": "newOwner",
          "type": "address"
        }
      ],
      "name": "OwnershipTransferred",
      "type": "event"
    },
    {
      "anonymous": false,
      "inputs": [
        {
          "indexed": true,
          "internalType": "address",
          "name": "from",
          "type": "address"
        },
        {
          "indexed": true,
          "internalType": "address",
          "name": "to",
          "type": "address"
        },
        {
          "indexed": false,
          "internalType": "uint256",
          "name": "value",
          "type": "uint256"
        }
      ],
      "name": "Transfer",
      "type": "event"
    },
    {
      "inputs": [
        {
          "internalType": "address",
          "name": "owner",
          "type": "address"
        },
        {
          "internalType": "address",
          "name": "spender",
          "type": "address"
        }
      ],
      "name": "allowance",
      "outputs": [
        {
          "internalType": "uint256",
          "name": "",
          "type": "uint256"
        }
      ],
      "stateMutability": "view",
      "type": "function",
      "constant": true
    },
    {
      "inputs": [
        {
          "internalType": "address",
          "name": "spender",
          "type": "address"
        },
        {
          "internalType": "uint256",
          "name": "value",
          "type": "uint256"
        }
      ],
      "name": "approve",
      "outputs": [
        {
          "internalType": "bool",
          "name": "",
          "type": "bool"
        }
      ],
      "stateMutability": "nonpayable",
      "type": "function"
    },
    {
      "inputs": [
        {
          "internalType": "address",
          "name": "account",
          "type": "address"
        }
      ],
      "name": "balanceOf",
      "outputs": [
        {
          "internalType": "uint256",
          "name": "",
          "type": "uint256"
        }
      ],
      "stateMutability": "view",
      "type": "function",
      "constant": true
    },
    {
      "inputs": [
        {
          "internalType": "string",
          "name": "",
          "type": "string"
        }
      ],
      "name": "channelOwners",
      "outputs": [
        {
          "internalType": "address",
          "name": "",
          "type": "address"
        }
      ],
      "stateMutability": "view",
      "type": "function",
      "constant": true
    },
    {
      "inputs": [
        {
          "internalType": "string",
          "name": "",
          "type": "string"
        }
      ],
      "name": "channelTokens",
      "outputs": [
        {
          "internalType": "uint256",
          "name": "",
          "type": "uint256"
        }
      ],
      "stateMutability": "view",
      "type": "function",
      "constant": true
    },
    {
      "inputs": [],
      "name": "decimals",
      "outputs": [
        {
          "internalType": "uint8",
          "name": "",
          "type": "uint8"
        }
      ],
      "stateMutability": "view",
      "type": "function",
      "constant": true
    },
    {
      "inputs": [],
      "name": "name",
      "outputs": [
        {
          "internalType": "string",
          "name": "",
          "type": "string"
        }
      ],
      "stateMutability": "view",
      "type": "function",
      "constant": true
    },
    {
      "inputs": [],
      "name": "owner",
      "outputs": [
        {
          "internalType": "address",
          "name": "",
          "type": "address"
        }
      ],
      "stateMutability": "view",
      "type": "function",
      "constant": true
    },
    {
      "inputs": [],
      "name": "renounceOwnership",
      "outputs": [],
      "stateMutability": "nonpayable",
      "type": "function"
    },
    {
      "inputs": [],
      "name": "symbol",
      "outputs": [
        {
          "internalType": "string",
          "name": "",
          "type": "string"
        }
      ],
      "stateMutability": "view",
      "type": "function",
      "constant": true
    },
    {
      "inputs": [],
      "name": "totalSupply",
      "outputs": [
        {
          "internalType": "uint256",
          "name": "",
          "type": "uint256"
        }
      ],
      "stateMutability": "view",
      "type": "function",
      "constant": true
    },
    {
      "inputs": [
        {
          "internalType": "address",
          "name": "to",
          "type": "address"
        },
        {
          "internalType": "uint256",
          "name": "value",
          "type": "uint256"
        }
      ],
      "name": "transfer",
      "outputs": [
        {
          "internalType": "bool",
          "name": "",
          "type": "bool"
        }
      ],
      "stateMutability": "nonpayable",
      "type": "function"
    },
    {
      "inputs": [
        {
          "internalType": "address",
          "name": "from",
          "type": "address"
        },
        {
          "internalType": "address",
          "name": "to",
          "type": "address"
        },
        {
          "internalType": "uint256",
          "name": "value",
          "type": "uint256"
        }
      ],
      "name": "transferFrom",
      "outputs": [
        {
          "internalType": "bool",
          "name": "",
          "type": "bool"
        }
      ],
      "stateMutability": "nonpayable",
      "type": "function"
    },
    {
      "inputs": [
        {
          "internalType": "address",
          "name": "newOwner",
          "type": "address"
        }
      ],
      "name": "transferOwnership",
      "outputs": [],
      "stateMutability": "nonpayable",
      "type": "function"
    },
    {
      "inputs": [
        {
          "internalType": "string",
          "name": "channelId",
          "type": "string"
        },
        {
          "internalType": "uint256",
          "name": "initialSupply",
          "type": "uint256"
        }
      ],
      "name": "createChannelToken",
      "outputs": [],
      "stateMutability": "nonpayable",
      "type": "function"
    },
    {
      "inputs": [
        {
          "internalType": "string",
          "name": "channelId",
          "type": "string"
        },
        {
          "internalType": "uint256",
          "name": "amount",
          "type": "uint256"
        }
      ],
      "name": "buyToken",
      "outputs": [],
      "stateMutability": "payable",
      "type": "function",
      "payable": true
    },
    {
      "inputs": [
        {
          "internalType": "string",
          "name": "channelId",
          "type": "string"
        },
        {
          "internalType": "uint256",
          "name": "amount",
          "type": "uint256"
        }
      ],
      "name": "sellToken",
      "outputs": [],
      "stateMutability": "nonpayable",
      "type": "function"
    },
    {
      "inputs": [
        {
          "internalType": "address",
          "name": "to",
          "type": "address"
        },
        {
          "internalType": "uint256",
          "name": "amount",
          "type": "uint256"
        }
      ],
      "name": "royaltyFee",
      "outputs": [],
      "stateMutability": "nonpayable",
      "type": "function"
    }
  ],
  "bytecode": "0x608060405234801562000010575f80fd5b50604051620021663803806200216683398181016040528101906200003691906200027d565b806040518060400160405280600c81526020017f596f7554756265546f6b656e00000000000000000000000000000000000000008152506040518060400160405280600381526020017f59545400000000000000000000000000000000000000000000000000000000008152508160039081620000b4919062000511565b508060049081620000c6919062000511565b5050505f73ffffffffffffffffffffffffffffffffffffffff168173ffffffffffffffffffffffffffffffffffffffff16036200013c575f6040517f1e4fbdf700000000000000000000000000000000000000000000000000000000815260040162000133919062000606565b60405180910390fd5b6200014d816200015560201b60201c565b505062000621565b5f60055f9054906101000a900473ffffffffffffffffffffffffffffffffffffffff1690508160055f6101000a81548173ffffffffffffffffffffffffffffffffffffffff021916908373ffffffffffffffffffffffffffffffffffffffff1602179055508173ffffffffffffffffffffffffffffffffffffffff168173ffffffffffffffffffffffffffffffffffffffff167f8be0079c531659141344cd1fd0a4f28419497f9722a3daafe3b4186f6b6457e060405160405180910390a35050565b5f80fd5b5f73ffffffffffffffffffffffffffffffffffffffff82169050919050565b5f62000247826200021c565b9050919050565b62000259816200023b565b811462000264575f80fd5b50565b5f8151905062000277816200024e565b92915050565b5f6020828403121562000295576200029462000218565b5b5f620002a48482850162000267565b91505092915050565b5f81519050919050565b7f4e487b71000000000000000000000000000000000000000000000000000000005f52604160045260245ffd5b7f4e487b71000000000000000000000000000000000000000000000000000000005f52602260045260245ffd5b5f60028204905060018216806200032957607f821691505b6020821081036200033f576200033e620002e4565b5b50919050565b5f819050815f5260205f209050919050565b5f6020601f8301049050919050565b5f82821b905092915050565b5f60088302620003a37fffffffffffffffffffffffffffffffffffffffffffffffffffffffffffffffff8262000366565b620003af868362000366565b95508019841693508086168417925050509392505050565b5f819050919050565b5f819050919050565b5f620003f9620003f3620003ed84620003c7565b620003d0565b620003c7565b9050919050565b5f819050919050565b6200041483620003d9565b6200042c620004238262000400565b84845462000372565b825550505050565b5f90565b6200044262000434565b6200044f81848462000409565b505050565b5b8181101562000476576200046a5f8262000438565b60018101905062000455565b5050565b601f821115620004c5576200048f8162000345565b6200049a8462000357565b81016020851015620004aa578190505b620004c2620004b98562000357565b83018262000454565b50505b505050565b5f82821c905092915050565b5f620004e75f1984600802620004ca565b1980831691505092915050565b5f620005018383620004d6565b9150826002028217905092915050565b6200051c82620002ad565b67ffffffffffffffff811115620005385762000537620002b7565b5b62000544825462000311565b620005518282856200047a565b5f60209050601f83116001811462000587575f841562000572578287015190505b6200057e8582620004f4565b865550620005ed565b601f198416620005978662000345565b5f5b82811015620005c05784890151825560018201915060208501945060208101905062000599565b86831015620005e05784890151620005dc601f891682620004d6565b8355505b6001600288020188555050505b505050505050565b62000600816200023b565b82525050565b5f6020820190506200061b5f830184620005f5565b92915050565b611b37806200062f5f395ff3fe608060405260043610610108575f3560e01c80638da5cb5b11610094578063c02de8c811610063578063c02de8c814610350578063d0315e681461038c578063d109ca17146103c8578063dd62ed3e146103f0578063f2fde38b1461042c57610108565b80638da5cb5b1461029857806393990aa6146102c257806395d89b41146102ea578063a9059cbb1461031457610108565b806323b872dd116100db57806323b872dd146101b8578063313ce567146101f457806370a082311461021e578063715018a61461025a578063763dd1871461027057610108565b806306fdde031461010c578063095ea7b31461013657806309be77071461017257806318160ddd1461018e575b5f80fd5b348015610117575f80fd5b50610120610454565b60405161012d919061140d565b60405180910390f35b348015610141575f80fd5b5061015c600480360381019061015791906114cb565b6104e4565b6040516101699190611523565b60405180910390f35b61018c60048036038101906101879190611668565b610506565b005b348015610199575f80fd5b506101a26106a1565b6040516101af91906116d1565b60405180910390f35b3480156101c3575f80fd5b506101de60048036038101906101d991906116ea565b6106aa565b6040516101eb9190611523565b60405180910390f35b3480156101ff575f80fd5b506102086106d8565b6040516102159190611755565b60405180910390f35b348015610229575f80fd5b50610244600480360381019061023f919061176e565b6106e0565b60405161025191906116d1565b60405180910390f35b348015610265575f80fd5b5061026e610725565b005b34801561027b575f80fd5b5061029660048036038101906102919190611668565b610738565b005b3480156102a3575f80fd5b506102ac610878565b6040516102b991906117a8565b60405180910390f35b3480156102cd575f80fd5b506102e860048036038101906102e39190611668565b6108a0565b005b3480156102f5575f80fd5b506102fe6109f3565b60405161030b919061140d565b60405180910390f35b34801561031f575f80fd5b5061033a600480360381019061033591906114cb565b610a83565b6040516103479190611523565b60405180910390f35b34801561035b575f80fd5b50610376600480360381019061037191906117c1565b610aa5565b60405161038391906117a8565b60405180910390f35b348015610397575f80fd5b506103b260048036038101906103ad91906117c1565b610aed565b6040516103bf91906116d1565b60405180910390f35b3480156103d3575f80fd5b506103ee60048036038101906103e991906114cb565b610b1a565b005b3480156103fb575f80fd5b5061041660048036038101906104119190611808565b610b31565b60405161042391906116d1565b60405180910390f35b348015610437575f80fd5b50610452600480360381019061044d919061176e565b610bb3565b005b60606003805461046390611873565b80601f016020809104026020016040519081016040528092919081815260200182805461048f90611873565b80156104da5780601f106104b1576101008083540402835291602001916104da565b820191905f5260205f20905b8154815290600101906020018083116104bd57829003601f168201915b5050505050905090565b5f806104ee610c37565b90506104fb818585610c3e565b600191505092915050565b5f73ffffffffffffffffffffffffffffffffffffffff1660068360405161052d91906118dd565b90815260200160405180910390205f9054906101000a900473ffffffffffffffffffffffffffffffffffffffff1673ffffffffffffffffffffffffffffffffffffffff16036105b1576040517f08c379a00000000000000000000000000000000000000000000000000000000081526004016105a89061193d565b60405180910390fd5b5f670de0b6b3a7640000826105c69190611988565b90508034101561060b576040517f08c379a000000000000000000000000000000000000000000000000000000000815260040161060290611a13565b60405180910390fd5b5f60068460405161061c91906118dd565b90815260200160405180910390205f9054906101000a900473ffffffffffffffffffffffffffffffffffffffff169050610657813385610c50565b8073ffffffffffffffffffffffffffffffffffffffff166108fc3490811502906040515f60405180830381858888f1935050505015801561069a573d5f803e3d5ffd5b5050505050565b5f600254905090565b5f806106b4610c37565b90506106c1858285610d40565b6106cc858585610c50565b60019150509392505050565b5f6012905090565b5f805f8373ffffffffffffffffffffffffffffffffffffffff1673ffffffffffffffffffffffffffffffffffffffff1681526020019081526020015f20549050919050565b61072d610dd2565b6107365f610e59565b565b610740610dd2565b5f73ffffffffffffffffffffffffffffffffffffffff1660068360405161076791906118dd565b90815260200160405180910390205f9054906101000a900473ffffffffffffffffffffffffffffffffffffffff1673ffffffffffffffffffffffffffffffffffffffff16146107eb576040517f08c379a00000000000000000000000000000000000000000000000000000000081526004016107e290611a7b565b60405180910390fd5b336006836040516107fc91906118dd565b90815260200160405180910390205f6101000a81548173ffffffffffffffffffffffffffffffffffffffff021916908373ffffffffffffffffffffffffffffffffffffffff1602179055506108513382610f1c565b8060078360405161086291906118dd565b9081526020016040518091039020819055505050565b5f60055f9054906101000a900473ffffffffffffffffffffffffffffffffffffffff16905090565b5f73ffffffffffffffffffffffffffffffffffffffff166006836040516108c791906118dd565b90815260200160405180910390205f9054906101000a900473ffffffffffffffffffffffffffffffffffffffff1673ffffffffffffffffffffffffffffffffffffffff160361094b576040517f08c379a00000000000000000000000000000000000000000000000000000000081526004016109429061193d565b60405180910390fd5b5f670de0b6b3a7640000826109609190611988565b90506109aa3360068560405161097691906118dd565b90815260200160405180910390205f9054906101000a900473ffffffffffffffffffffffffffffffffffffffff1684610c50565b3373ffffffffffffffffffffffffffffffffffffffff166108fc8290811502906040515f60405180830381858888f193505050501580156109ed573d5f803e3d5ffd5b50505050565b606060048054610a0290611873565b80601f0160208091040260200160405190810160405280929190818152602001828054610a2e90611873565b8015610a795780601f10610a5057610100808354040283529160200191610a79565b820191905f5260205f20905b815481529060010190602001808311610a5c57829003601f168201915b5050505050905090565b5f80610a8d610c37565b9050610a9a818585610c50565b600191505092915050565b6006818051602081018201805184825260208301602085012081835280955050505050505f915054906101000a900473ffffffffffffffffffffffffffffffffffffffff1681565b6007818051602081018201805184825260208301602085012081835280955050505050505f915090505481565b610b22610dd2565b610b2d338383610c50565b5050565b5f60015f8473ffffffffffffffffffffffffffffffffffffffff1673ffffffffffffffffffffffffffffffffffffffff1681526020019081526020015f205f8373ffffffffffffffffffffffffffffffffffffffff1673ffffffffffffffffffffffffffffffffffffffff1681526020019081526020015f2054905092915050565b610bbb610dd2565b5f73ffffffffffffffffffffffffffffffffffffffff168173ffffffffffffffffffffffffffffffffffffffff1603610c2b575f6040517f1e4fbdf7000000000000000000000000000000000000000000000000000000008152600401610c2291906117a8565b60405180910390fd5b610c3481610e59565b50565b5f33905090565b610c4b8383836001610f9b565b505050565b5f73ffffffffffffffffffffffffffffffffffffffff168373ffffffffffffffffffffffffffffffffffffffff1603610cc0575f6040517f96c6fd1e000000000000000000000000000000000000000000000000000000008152600401610cb791906117a8565b60405180910390fd5b5f73ffffffffffffffffffffffffffffffffffffffff168273ffffffffffffffffffffffffffffffffffffffff1603610d30575f6040517fec442f05000000000000000000000000000000000000000000000000000000008152600401610d2791906117a8565b60405180910390fd5b610d3b83838361116a565b505050565b5f610d4b8484610b31565b90507fffffffffffffffffffffffffffffffffffffffffffffffffffffffffffffffff8114610dcc5781811015610dbd578281836040517ffb8f41b2000000000000000000000000000000000000000000000000000000008152600401610db493929190611a99565b60405180910390fd5b610dcb84848484035f610f9b565b5b50505050565b610dda610c37565b73ffffffffffffffffffffffffffffffffffffffff16610df8610878565b73ffffffffffffffffffffffffffffffffffffffff1614610e5757610e1b610c37565b6040517f118cdaa7000000000000000000000000000000000000000000000000000000008152600401610e4e91906117a8565b60405180910390fd5b565b5f60055f9054906101000a900473ffffffffffffffffffffffffffffffffffffffff1690508160055f6101000a81548173ffffffffffffffffffffffffffffffffffffffff021916908373ffffffffffffffffffffffffffffffffffffffff1602179055508173ffffffffffffffffffffffffffffffffffffffff168173ffffffffffffffffffffffffffffffffffffffff167f8be0079c531659141344cd1fd0a4f28419497f9722a3daafe3b4186f6b6457e060405160405180910390a35050565b5f73ffffffffffffffffffffffffffffffffffffffff168273ffffffffffffffffffffffffffffffffffffffff1603610f8c575f6040517fec442f05000000000000000000000000000000000000000000000000000000008152600401610f8391906117a8565b60405180910390fd5b610f975f838361116a565b5050565b5f73ffffffffffffffffffffffffffffffffffffffff168473ffffffffffffffffffffffffffffffffffffffff160361100b575f6040517fe602df0500000000000000000000000000000000000000000000000000000000815260040161100291906117a8565b60405180910390fd5b5f73ffffffffffffffffffffffffffffffffffffffff168373ffffffffffffffffffffffffffffffffffffffff160361107b575f6040517f94280d6200000000000000000000000000000000000000000000000000000000815260040161107291906117a8565b60405180910390fd5b8160015f8673ffffffffffffffffffffffffffffffffffffffff1673ffffffffffffffffffffffffffffffffffffffff1681526020019081526020015f205f8573ffffffffffffffffffffffffffffffffffffffff1673ffffffffffffffffffffffffffffffffffffffff1681526020019081526020015f20819055508015611164578273ffffffffffffffffffffffffffffffffffffffff168473ffffffffffffffffffffffffffffffffffffffff167f8c5be1e5ebec7d5bd14f71427d1e84f3dd0314c0f7b2291e5b200ac8c7c3b9258460405161115b91906116d1565b60405180910390a35b50505050565b5f73ffffffffffffffffffffffffffffffffffffffff168373ffffffffffffffffffffffffffffffffffffffff16036111ba578060025f8282546111ae9190611ace565b92505081905550611288565b5f805f8573ffffffffffffffffffffffffffffffffffffffff1673ffffffffffffffffffffffffffffffffffffffff1681526020019081526020015f2054905081811015611243578381836040517fe450d38c00000000000000000000000000000000000000000000000000000000815260040161123a93929190611a99565b60405180910390fd5b8181035f808673ffffffffffffffffffffffffffffffffffffffff1673ffffffffffffffffffffffffffffffffffffffff1681526020019081526020015f2081905550505b5f73ffffffffffffffffffffffffffffffffffffffff168273ffffffffffffffffffffffffffffffffffffffff16036112cf578060025f8282540392505081905550611319565b805f808473ffffffffffffffffffffffffffffffffffffffff1673ffffffffffffffffffffffffffffffffffffffff1681526020019081526020015f205f82825401925050819055505b8173ffffffffffffffffffffffffffffffffffffffff168373ffffffffffffffffffffffffffffffffffffffff167fddf252ad1be2c89b69c2b068fc378daa952ba7f163c4a11628f55a4df523b3ef8360405161137691906116d1565b60405180910390a3505050565b5f81519050919050565b5f82825260208201905092915050565b5f5b838110156113ba57808201518184015260208101905061139f565b5f8484015250505050565b5f601f19601f8301169050919050565b5f6113df82611383565b6113e9818561138d565b93506113f981856020860161139d565b611402816113c5565b840191505092915050565b5f6020820190508181035f83015261142581846113d5565b905092915050565b5f604051905090565b5f80fd5b5f80fd5b5f73ffffffffffffffffffffffffffffffffffffffff82169050919050565b5f6114678261143e565b9050919050565b6114778161145d565b8114611481575f80fd5b50565b5f813590506114928161146e565b92915050565b5f819050919050565b6114aa81611498565b81146114b4575f80fd5b50565b5f813590506114c5816114a1565b92915050565b5f80604083850312156114e1576114e0611436565b5b5f6114ee85828601611484565b92505060206114ff858286016114b7565b9150509250929050565b5f8115159050919050565b61151d81611509565b82525050565b5f6020820190506115365f830184611514565b92915050565b5f80fd5b5f80fd5b7f4e487b71000000000000000000000000000000000000000000000000000000005f52604160045260245ffd5b61157a826113c5565b810181811067ffffffffffffffff8211171561159957611598611544565b5b80604052505050565b5f6115ab61142d565b90506115b78282611571565b919050565b5f67ffffffffffffffff8211156115d6576115d5611544565b5b6115df826113c5565b9050602081019050919050565b828183375f83830152505050565b5f61160c611607846115bc565b6115a2565b90508281526020810184848401111561162857611627611540565b5b6116338482856115ec565b509392505050565b5f82601f83011261164f5761164e61153c565b5b813561165f8482602086016115fa565b91505092915050565b5f806040838503121561167e5761167d611436565b5b5f83013567ffffffffffffffff81111561169b5761169a61143a565b5b6116a78582860161163b565b92505060206116b8858286016114b7565b9150509250929050565b6116cb81611498565b82525050565b5f6020820190506116e45f8301846116c2565b92915050565b5f805f6060848603121561170157611700611436565b5b5f61170e86828701611484565b935050602061171f86828701611484565b9250506040611730868287016114b7565b9150509250925092565b5f60ff82169050919050565b61174f8161173a565b82525050565b5f6020820190506117685f830184611746565b92915050565b5f6020828403121561178357611782611436565b5b5f61179084828501611484565b91505092915050565b6117a28161145d565b82525050565b5f6020820190506117bb5f830184611799565b92915050565b5f602082840312156117d6576117d5611436565b5b5f82013567ffffffffffffffff8111156117f3576117f261143a565b5b6117ff8482850161163b565b91505092915050565b5f806040838503121561181e5761181d611436565b5b5f61182b85828601611484565b925050602061183c85828601611484565b9150509250929050565b7f4e487b71000000000000000000000000000000000000000000000000000000005f52602260045260245ffd5b5f600282049050600182168061188a57607f821691505b60208210810361189d5761189c611846565b5b50919050565b5f81905092915050565b5f6118b782611383565b6118c181856118a3565b93506118d181856020860161139d565b80840191505092915050565b5f6118e882846118ad565b915081905092915050565b7f4368616e6e656c20746f6b656e20646f6573206e6f74206578697374000000005f82015250565b5f611927601c8361138d565b9150611932826118f3565b602082019050919050565b5f6020820190508181035f8301526119548161191b565b9050919050565b7f4e487b71000000000000000000000000000000000000000000000000000000005f52601160045260245ffd5b5f61199282611498565b915061199d83611498565b92508282026119ab81611498565b915082820484148315176119c2576119c161195b565b5b5092915050565b7f496e73756666696369656e742066756e647300000000000000000000000000005f82015250565b5f6119fd60128361138d565b9150611a08826119c9565b602082019050919050565b5f6020820190508181035f830152611a2a816119f1565b9050919050565b7f4368616e6e656c20746f6b656e20616c726561647920657869737473000000005f82015250565b5f611a65601c8361138d565b9150611a7082611a31565b602082019050919050565b5f6020820190508181035f830152611a9281611a59565b9050919050565b5f606082019050611aac5f830186611799565b611ab960208301856116c2565b611ac660408301846116c2565b949350505050565b5f611ad882611498565b9150611ae383611498565b9250828201905080821115611afb57611afa61195b565b5b9291505056fea2646970667358221220205d50eca792658ec0a1af5c4be30416acc85184cdb9dc35455f657aa9eab03564736f6c63430008140033",
  "immutableReferences": {},
  "source": "// SPDX-License-Identifier: MIT\r\npragma solidity ^0.8.0;\r\n\r\nimport \"@openzeppelin/contracts/token/ERC20/ERC20.sol\";\r\nimport \"@openzeppelin/contracts/access/Ownable.sol\";\r\n\r\ncontract YouTubeToken is ERC20, Ownable {\r\n    mapping(string => address) public channelOwners;\r\n    mapping(string => uint256) public channelTokens;\r\n\r\n    constructor(address initialOwner) ERC20(\"YouTubeToken\", \"YTT\") Ownable(initialOwner) {}\r\n\r\n    function createChannelToken(string memory channelId, uint256 initialSupply) external onlyOwner {\r\n        require(channelOwners[channelId] == address(0), \"Channel token already exists\");\r\n        channelOwners[channelId] = msg.sender;\r\n        _mint(msg.sender, initialSupply);\r\n        channelTokens[channelId] = initialSupply;\r\n    }\r\n\r\n    function buyToken(string memory channelId, uint256 amount) external payable {\r\n        require(channelOwners[channelId] != address(0), \"Channel token does not exist\");\r\n        uint256 totalCost = amount * (1 ether); // Define your own token price logic\r\n        require(msg.value >= totalCost, \"Insufficient funds\");\r\n\r\n        address owner = channelOwners[channelId];\r\n        _transfer(owner, msg.sender, amount);\r\n        payable(owner).transfer(msg.value);\r\n    }\r\n\r\n    function sellToken(string memory channelId, uint256 amount) external {\r\n        require(channelOwners[channelId] != address(0), \"Channel token does not exist\");\r\n        uint256 totalCost = amount * (1 ether); // Define your own token price logic\r\n        _transfer(msg.sender, channelOwners[channelId], amount);\r\n        payable(msg.sender).transfer(totalCost);\r\n    }\r\n\r\n    function royaltyFee(address to, uint256 amount) external onlyOwner {\r\n        _transfer(msg.sender, to, amount);\r\n    }\r\n}\r\n",
  "sourcePath": "C:\\Users\\sarth\\OneDrive\\Desktop\\eth\\youtube-token\\contracts\\YouTubeToken.sol",
  "compiler": {
    "name": "solc",
    "version": "0.8.20+commit.a1b79de6.Emscripten.clang"
  },
  "schemaVersion": "3.4.16",
  "updatedAt": "2024-08-08T21:03:39.438Z",
  "networkType": "ethereum",
  "devdoc": {
    "errors": {
      "ERC20InsufficientAllowance(address,uint256,uint256)": [
        {
          "details": "Indicates a failure with the `spender`s `allowance`. Used in transfers.",
          "params": {
            "allowance": "Amount of tokens a `spender` is allowed to operate with.",
            "needed": "Minimum amount required to perform a transfer.",
            "spender": "Address that may be allowed to operate on tokens without being their owner."
          }
        }
      ],
      "ERC20InsufficientBalance(address,uint256,uint256)": [
        {
          "details": "Indicates an error related to the current `balance` of a `sender`. Used in transfers.",
          "params": {
            "balance": "Current balance for the interacting account.",
            "needed": "Minimum amount required to perform a transfer.",
            "sender": "Address whose tokens are being transferred."
          }
        }
      ],
      "ERC20InvalidApprover(address)": [
        {
          "details": "Indicates a failure with the `approver` of a token to be approved. Used in approvals.",
          "params": {
            "approver": "Address initiating an approval operation."
          }
        }
      ],
      "ERC20InvalidReceiver(address)": [
        {
          "details": "Indicates a failure with the token `receiver`. Used in transfers.",
          "params": {
            "receiver": "Address to which tokens are being transferred."
          }
        }
      ],
      "ERC20InvalidSender(address)": [
        {
          "details": "Indicates a failure with the token `sender`. Used in transfers.",
          "params": {
            "sender": "Address whose tokens are being transferred."
          }
        }
      ],
      "ERC20InvalidSpender(address)": [
        {
          "details": "Indicates a failure with the `spender` to be approved. Used in approvals.",
          "params": {
            "spender": "Address that may be allowed to operate on tokens without being their owner."
          }
        }
      ],
      "OwnableInvalidOwner(address)": [
        {
          "details": "The owner is not a valid owner account. (eg. `address(0)`)"
        }
      ],
      "OwnableUnauthorizedAccount(address)": [
        {
          "details": "The caller account is not authorized to perform an operation."
        }
      ]
    },
    "events": {
      "Approval(address,address,uint256)": {
        "details": "Emitted when the allowance of a `spender` for an `owner` is set by a call to {approve}. `value` is the new allowance."
      },
      "Transfer(address,address,uint256)": {
        "details": "Emitted when `value` tokens are moved from one account (`from`) to another (`to`). Note that `value` may be zero."
      }
    },
    "kind": "dev",
    "methods": {
      "allowance(address,address)": {
        "details": "See {IERC20-allowance}."
      },
      "approve(address,uint256)": {
        "details": "See {IERC20-approve}. NOTE: If `value` is the maximum `uint256`, the allowance is not updated on `transferFrom`. This is semantically equivalent to an infinite approval. Requirements: - `spender` cannot be the zero address."
      },
      "balanceOf(address)": {
        "details": "See {IERC20-balanceOf}."
      },
      "decimals()": {
        "details": "Returns the number of decimals used to get its user representation. For example, if `decimals` equals `2`, a balance of `505` tokens should be displayed to a user as `5.05` (`505 / 10 ** 2`). Tokens usually opt for a value of 18, imitating the relationship between Ether and Wei. This is the default value returned by this function, unless it's overridden. NOTE: This information is only used for _display_ purposes: it in no way affects any of the arithmetic of the contract, including {IERC20-balanceOf} and {IERC20-transfer}."
      },
      "name()": {
        "details": "Returns the name of the token."
      },
      "owner()": {
        "details": "Returns the address of the current owner."
      },
      "renounceOwnership()": {
        "details": "Leaves the contract without owner. It will not be possible to call `onlyOwner` functions. Can only be called by the current owner. NOTE: Renouncing ownership will leave the contract without an owner, thereby disabling any functionality that is only available to the owner."
      },
      "symbol()": {
        "details": "Returns the symbol of the token, usually a shorter version of the name."
      },
      "totalSupply()": {
        "details": "See {IERC20-totalSupply}."
      },
      "transfer(address,uint256)": {
        "details": "See {IERC20-transfer}. Requirements: - `to` cannot be the zero address. - the caller must have a balance of at least `value`."
      },
      "transferFrom(address,address,uint256)": {
        "details": "See {IERC20-transferFrom}. Emits an {Approval} event indicating the updated allowance. This is not required by the EIP. See the note at the beginning of {ERC20}. NOTE: Does not update the allowance if the current allowance is the maximum `uint256`. Requirements: - `from` and `to` cannot be the zero address. - `from` must have a balance of at least `value`. - the caller must have allowance for ``from``'s tokens of at least `value`."
      },
      "transferOwnership(address)": {
        "details": "Transfers ownership of the contract to a new account (`newOwner`). Can only be called by the current owner."
      }
    },
    "version": 1
  },
  "userdoc": {
    "kind": "user",
    "methods": {},
    "version": 1
  }
}