{
  "contractName": "YouTubeToken",
  "abi": [
    {
      "inputs": [
        {
          "internalType": "address",
          "name": "initialOwner",
          "type": "address"
        }
      ],
      "stateMutability": "nonpayable",
      "type": "constructor"
    },
    {
      "inputs": [
        {
          "internalType": "address",
          "name": "spender",
          "type": "address"
        },
        {
          "internalType": "uint256",
          "name": "allowance",
          "type": "uint256"
        },
        {
          "internalType": "uint256",
          "name": "needed",
          "type": "uint256"
        }
      ],
      "name": "ERC20InsufficientAllowance",
      "type": "error"
    },
    {
      "inputs": [
        {
          "internalType": "address",
          "name": "sender",
          "type": "address"
        },
        {
          "internalType": "uint256",
          "name": "balance",
          "type": "uint256"
        },
        {
          "internalType": "uint256",
          "name": "needed",
          "type": "uint256"
        }
      ],
      "name": "ERC20InsufficientBalance",
      "type": "error"
    },
    {
      "inputs": [
        {
          "internalType": "address",
          "name": "approver",
          "type": "address"
        }
      ],
      "name": "ERC20InvalidApprover",
      "type": "error"
    },
    {
      "inputs": [
        {
          "internalType": "address",
          "name": "receiver",
          "type": "address"
        }
      ],
      "name": "ERC20InvalidReceiver",
      "type": "error"
    },
    {
      "inputs": [
        {
          "internalType": "address",
          "name": "sender",
          "type": "address"
        }
      ],
      "name": "ERC20InvalidSender",
      "type": "error"
    },
    {
      "inputs": [
        {
          "internalType": "address",
          "name": "spender",
          "type": "address"
        }
      ],
      "name": "ERC20InvalidSpender",
      "type": "error"
    },
    {
      "inputs": [
        {
          "internalType": "address",
          "name": "owner",
          "type": "address"
        }
      ],
      "name": "OwnableInvalidOwner",
      "type": "error"
    },
    {
      "inputs": [
        {
          "internalType": "address",
          "name": "account",
          "type": "address"
        }
      ],
      "name": "OwnableUnauthorizedAccount",
      "type": "error"
    },
    {
      "anonymous": false,
      "inputs": [
        {
          "indexed": true,
          "internalType": "address",
          "name": "owner",
          "type": "address"
        },
        {
          "indexed": true,
          "internalType": "address",
          "name": "spender",
          "type": "address"
        },
        {
          "indexed": false,
          "internalType": "uint256",
          "name": "value",
          "type": "uint256"
        }
      ],
      "name": "Approval",
      "type": "event"
    },
    {
      "anonymous": false,
      "inputs": [
        {
          "indexed": true,
          "internalType": "address",
          "name": "previousOwner",
          "type": "address"
        },
        {
          "indexed": true,
          "internalType": "address",
          "name": "newOwner",
          "type": "address"
        }
      ],
      "name": "OwnershipTransferred",
      "type": "event"
    },
    {
      "anonymous": false,
      "inputs": [
        {
          "indexed": true,
          "internalType": "address",
          "name": "from",
          "type": "address"
        },
        {
          "indexed": true,
          "internalType": "address",
          "name": "to",
          "type": "address"
        },
        {
          "indexed": false,
          "internalType": "uint256",
          "name": "value",
          "type": "uint256"
        }
      ],
      "name": "Transfer",
      "type": "event"
    },
    {
      "inputs": [
        {
          "internalType": "address",
          "name": "owner",
          "type": "address"
        },
        {
          "internalType": "address",
          "name": "spender",
          "type": "address"
        }
      ],
      "name": "allowance",
      "outputs": [
        {
          "internalType": "uint256",
          "name": "",
          "type": "uint256"
        }
      ],
      "stateMutability": "view",
      "type": "function",
      "constant": true
    },
    {
      "inputs": [
        {
          "internalType": "address",
          "name": "spender",
          "type": "address"
        },
        {
          "internalType": "uint256",
          "name": "value",
          "type": "uint256"
        }
      ],
      "name": "approve",
      "outputs": [
        {
          "internalType": "bool",
          "name": "",
          "type": "bool"
        }
      ],
      "stateMutability": "nonpayable",
      "type": "function"
    },
    {
      "inputs": [
        {
          "internalType": "address",
          "name": "account",
          "type": "address"
        }
      ],
      "name": "balanceOf",
      "outputs": [
        {
          "internalType": "uint256",
          "name": "",
          "type": "uint256"
        }
      ],
      "stateMutability": "view",
      "type": "function",
      "constant": true
    },
    {
      "inputs": [
        {
          "internalType": "uint256",
          "name": "",
          "type": "uint256"
        }
      ],
      "name": "channelIds",
      "outputs": [
        {
          "internalType": "string",
          "name": "",
          "type": "string"
        }
      ],
      "stateMutability": "view",
      "type": "function",
      "constant": true
    },
    {
      "inputs": [
        {
          "internalType": "string",
          "name": "",
          "type": "string"
        }
      ],
      "name": "channels",
      "outputs": [
        {
          "internalType": "address",
          "name": "owner",
          "type": "address"
        },
        {
          "internalType": "uint256",
          "name": "tokenSupply",
          "type": "uint256"
        },
        {
          "internalType": "uint256",
          "name": "tokenPrice",
          "type": "uint256"
        },
        {
          "internalType": "string",
          "name": "dataCID",
          "type": "string"
        },
        {
          "internalType": "uint256",
          "name": "liquidity",
          "type": "uint256"
        }
      ],
      "stateMutability": "view",
      "type": "function",
      "constant": true
    },
    {
      "inputs": [],
      "name": "decimals",
      "outputs": [
        {
          "internalType": "uint8",
          "name": "",
          "type": "uint8"
        }
      ],
      "stateMutability": "view",
      "type": "function",
      "constant": true
    },
    {
      "inputs": [],
      "name": "name",
      "outputs": [
        {
          "internalType": "string",
          "name": "",
          "type": "string"
        }
      ],
      "stateMutability": "view",
      "type": "function",
      "constant": true
    },
    {
      "inputs": [],
      "name": "owner",
      "outputs": [
        {
          "internalType": "address",
          "name": "",
          "type": "address"
        }
      ],
      "stateMutability": "view",
      "type": "function",
      "constant": true
    },
    {
      "inputs": [],
      "name": "renounceOwnership",
      "outputs": [],
      "stateMutability": "nonpayable",
      "type": "function"
    },
    {
      "inputs": [],
      "name": "royaltyPercentage",
      "outputs": [
        {
          "internalType": "uint256",
          "name": "",
          "type": "uint256"
        }
      ],
      "stateMutability": "view",
      "type": "function",
      "constant": true
    },
    {
      "inputs": [],
      "name": "symbol",
      "outputs": [
        {
          "internalType": "string",
          "name": "",
          "type": "string"
        }
      ],
      "stateMutability": "view",
      "type": "function",
      "constant": true
    },
    {
      "inputs": [],
      "name": "totalSupply",
      "outputs": [
        {
          "internalType": "uint256",
          "name": "",
          "type": "uint256"
        }
      ],
      "stateMutability": "view",
      "type": "function",
      "constant": true
    },
    {
      "inputs": [
        {
          "internalType": "address",
          "name": "to",
          "type": "address"
        },
        {
          "internalType": "uint256",
          "name": "value",
          "type": "uint256"
        }
      ],
      "name": "transfer",
      "outputs": [
        {
          "internalType": "bool",
          "name": "",
          "type": "bool"
        }
      ],
      "stateMutability": "nonpayable",
      "type": "function"
    },
    {
      "inputs": [
        {
          "internalType": "address",
          "name": "from",
          "type": "address"
        },
        {
          "internalType": "address",
          "name": "to",
          "type": "address"
        },
        {
          "internalType": "uint256",
          "name": "value",
          "type": "uint256"
        }
      ],
      "name": "transferFrom",
      "outputs": [
        {
          "internalType": "bool",
          "name": "",
          "type": "bool"
        }
      ],
      "stateMutability": "nonpayable",
      "type": "function"
    },
    {
      "inputs": [
        {
          "internalType": "address",
          "name": "newOwner",
          "type": "address"
        }
      ],
      "name": "transferOwnership",
      "outputs": [],
      "stateMutability": "nonpayable",
      "type": "function"
    },
    {
      "inputs": [
        {
          "internalType": "string",
          "name": "channelId",
          "type": "string"
        },
        {
          "internalType": "uint256",
          "name": "initialSupply",
          "type": "uint256"
        }
      ],
      "name": "registerChannel",
      "outputs": [],
      "stateMutability": "nonpayable",
      "type": "function"
    },
    {
      "inputs": [
        {
          "internalType": "string",
          "name": "channelId",
          "type": "string"
        },
        {
          "internalType": "uint256",
          "name": "subscribers",
          "type": "uint256"
        },
        {
          "internalType": "uint256",
          "name": "views",
          "type": "uint256"
        },
        {
          "internalType": "uint256",
          "name": "likes",
          "type": "uint256"
        },
        {
          "internalType": "uint256",
          "name": "comments",
          "type": "uint256"
        }
      ],
      "name": "updateTokenPrice",
      "outputs": [],
      "stateMutability": "nonpayable",
      "type": "function"
    },
    {
      "inputs": [
        {
          "internalType": "string",
          "name": "channelId",
          "type": "string"
        },
        {
          "internalType": "string",
          "name": "_cid",
          "type": "string"
        }
      ],
      "name": "updateDataCID",
      "outputs": [],
      "stateMutability": "nonpayable",
      "type": "function"
    },
    {
      "inputs": [
        {
          "internalType": "string",
          "name": "channelId",
          "type": "string"
        },
        {
          "internalType": "uint256",
          "name": "amount",
          "type": "uint256"
        }
      ],
      "name": "addLiquidity",
      "outputs": [],
      "stateMutability": "nonpayable",
      "type": "function"
    },
    {
      "inputs": [
        {
          "internalType": "string",
          "name": "channelId",
          "type": "string"
        },
        {
          "internalType": "uint256",
          "name": "amount",
          "type": "uint256"
        }
      ],
      "name": "buyToken",
      "outputs": [],
      "stateMutability": "payable",
      "type": "function",
      "payable": true
    },
    {
      "inputs": [
        {
          "internalType": "string",
          "name": "channelId",
          "type": "string"
        },
        {
          "internalType": "uint256",
          "name": "amount",
          "type": "uint256"
        }
      ],
      "name": "sellToken",
      "outputs": [],
      "stateMutability": "nonpayable",
      "type": "function"
    },
    {
      "inputs": [
        {
          "internalType": "uint256",
          "name": "_percentage",
          "type": "uint256"
        }
      ],
      "name": "setRoyaltyPercentage",
      "outputs": [],
      "stateMutability": "nonpayable",
      "type": "function"
    },
    {
      "inputs": [
        {
          "internalType": "string",
          "name": "channelId",
          "type": "string"
        },
        {
          "internalType": "address",
          "name": "to",
          "type": "address"
        },
        {
          "internalType": "uint256",
          "name": "amount",
          "type": "uint256"
        }
      ],
      "name": "mint",
      "outputs": [],
      "stateMutability": "nonpayable",
      "type": "function"
    },
    {
      "inputs": [],
      "name": "getAllChannels",
      "outputs": [
        {
          "internalType": "string[]",
          "name": "",
          "type": "string[]"
        },
        {
          "components": [
            {
              "internalType": "address",
              "name": "owner",
              "type": "address"
            },
            {
              "internalType": "uint256",
              "name": "tokenSupply",
              "type": "uint256"
            },
            {
              "internalType": "uint256",
              "name": "tokenPrice",
              "type": "uint256"
            },
            {
              "internalType": "string",
              "name": "dataCID",
              "type": "string"
            },
            {
              "internalType": "uint256",
              "name": "liquidity",
              "type": "uint256"
            }
          ],
          "internalType": "struct YouTubeToken.ChannelData[]",
          "name": "",
          "type": "tuple[]"
        }
      ],
      "stateMutability": "view",
      "type": "function",
      "constant": true
    },
    {
      "inputs": [
        {
          "internalType": "string",
          "name": "channelId",
          "type": "string"
        }
      ],
      "name": "getLatestDataCID",
      "outputs": [
        {
          "internalType": "string",
          "name": "",
          "type": "string"
        }
      ],
      "stateMutability": "view",
      "type": "function",
      "constant": true
    },
    {
      "inputs": [
        {
          "internalType": "string",
          "name": "channelId",
          "type": "string"
        }
      ],
      "name": "getTokenPrice",
      "outputs": [
        {
          "internalType": "uint256",
          "name": "",
          "type": "uint256"
        }
      ],
      "stateMutability": "view",
      "type": "function",
      "constant": true
    }
  ],
  "bytecode": "0x6080604052600560085534801562000015575f80fd5b50604051620039153803806200391583398181016040528101906200003b919062000282565b806040518060400160405280600c81526020017f596f7554756265546f6b656e00000000000000000000000000000000000000008152506040518060400160405280600381526020017f59545400000000000000000000000000000000000000000000000000000000008152508160039081620000b9919062000516565b508060049081620000cb919062000516565b5050505f73ffffffffffffffffffffffffffffffffffffffff168173ffffffffffffffffffffffffffffffffffffffff160362000141575f6040517f1e4fbdf70000000000000000000000000000000000000000000000000000000081526004016200013891906200060b565b60405180910390fd5b62000152816200015a60201b60201c565b505062000626565b5f60055f9054906101000a900473ffffffffffffffffffffffffffffffffffffffff1690508160055f6101000a81548173ffffffffffffffffffffffffffffffffffffffff021916908373ffffffffffffffffffffffffffffffffffffffff1602179055508173ffffffffffffffffffffffffffffffffffffffff168173ffffffffffffffffffffffffffffffffffffffff167f8be0079c531659141344cd1fd0a4f28419497f9722a3daafe3b4186f6b6457e060405160405180910390a35050565b5f80fd5b5f73ffffffffffffffffffffffffffffffffffffffff82169050919050565b5f6200024c8262000221565b9050919050565b6200025e8162000240565b811462000269575f80fd5b50565b5f815190506200027c8162000253565b92915050565b5f602082840312156200029a57620002996200021d565b5b5f620002a9848285016200026c565b91505092915050565b5f81519050919050565b7f4e487b71000000000000000000000000000000000000000000000000000000005f52604160045260245ffd5b7f4e487b71000000000000000000000000000000000000000000000000000000005f52602260045260245ffd5b5f60028204905060018216806200032e57607f821691505b602082108103620003445762000343620002e9565b5b50919050565b5f819050815f5260205f209050919050565b5f6020601f8301049050919050565b5f82821b905092915050565b5f60088302620003a87fffffffffffffffffffffffffffffffffffffffffffffffffffffffffffffffff826200036b565b620003b486836200036b565b95508019841693508086168417925050509392505050565b5f819050919050565b5f819050919050565b5f620003fe620003f8620003f284620003cc565b620003d5565b620003cc565b9050919050565b5f819050919050565b6200041983620003de565b62000431620004288262000405565b84845462000377565b825550505050565b5f90565b6200044762000439565b620004548184846200040e565b505050565b5b818110156200047b576200046f5f826200043d565b6001810190506200045a565b5050565b601f821115620004ca5762000494816200034a565b6200049f846200035c565b81016020851015620004af578190505b620004c7620004be856200035c565b83018262000459565b50505b505050565b5f82821c905092915050565b5f620004ec5f1984600802620004cf565b1980831691505092915050565b5f620005068383620004db565b9150826002028217905092915050565b6200052182620002b2565b67ffffffffffffffff8111156200053d576200053c620002bc565b5b62000549825462000316565b620005568282856200047f565b5f60209050601f8311600181146200058c575f841562000577578287015190505b620005838582620004f9565b865550620005f2565b601f1984166200059c866200034a565b5f5b82811015620005c5578489015182556001820191506020850194506020810190506200059e565b86831015620005e55784890151620005e1601f891682620004db565b8355505b6001600288020188555050505b505050505050565b620006058162000240565b82525050565b5f602082019050620006205f830184620005fa565b92915050565b6132e180620006345f395ff3fe608060405260043610610180575f3560e01c8063715018a6116100d057806393990aa611610089578063ae1c318911610063578063ae1c318914610589578063dd62ed3e146105b1578063e507515f146105ed578063f2fde38b1461061557610180565b806393990aa6146104fb57806395d89b4114610523578063a9059cbb1461054d57610180565b8063715018a614610405578063782ae2c61461041b5780637e8816b9146104435780638a71bb2d1461046b5780638da5cb5b146104955780638e5c318f146104bf57610180565b8063313ce5671161013d57806357abd3d81161011757806357abd3d81461033a5780635dac32821461037657806361ba27da146103a157806370a08231146103c957610180565b8063313ce567146102ac578063433ff288146102d65780635350758f146102fe57610180565b806306fdde0314610184578063095ea7b3146101ae57806309be7707146101ea5780630e01f98b1461020657806318160ddd1461024657806323b872dd14610270575b5f80fd5b34801561018f575f80fd5b5061019861063d565b6040516101a59190612195565b60405180910390f35b3480156101b9575f80fd5b506101d460048036038101906101cf9190612253565b6106cd565b6040516101e191906122ab565b60405180910390f35b61020460048036038101906101ff91906123f0565b6106ef565b005b348015610211575f80fd5b5061022c6004803603810190610227919061244a565b6109b6565b60405161023d9594939291906124af565b60405180910390f35b348015610251575f80fd5b5061025a610aa5565b6040516102679190612507565b60405180910390f35b34801561027b575f80fd5b5061029660048036038101906102919190612520565b610aae565b6040516102a391906122ab565b60405180910390f35b3480156102b7575f80fd5b506102c0610adc565b6040516102cd919061258b565b60405180910390f35b3480156102e1575f80fd5b506102fc60048036038101906102f791906123f0565b610ae4565b005b348015610309575f80fd5b50610324600480360381019061031f919061244a565b610c2a565b6040516103319190612507565b60405180910390f35b348015610345575f80fd5b50610360600480360381019061035b91906125a4565b610c54565b60405161036d9190612195565b60405180910390f35b348015610381575f80fd5b5061038a610cfa565b60405161039892919061281e565b60405180910390f35b3480156103ac575f80fd5b506103c760048036038101906103c291906125a4565b610fba565b005b3480156103d4575f80fd5b506103ef60048036038101906103ea9190612853565b611010565b6040516103fc9190612507565b60405180910390f35b348015610410575f80fd5b50610419611055565b005b348015610426575f80fd5b50610441600480360381019061043c919061287e565b611068565b005b34801561044e575f80fd5b5061046960048036038101906104649190612911565b611178565b005b348015610476575f80fd5b5061047f611273565b60405161048c9190612507565b60405180910390f35b3480156104a0575f80fd5b506104a9611279565b6040516104b6919061297d565b60405180910390f35b3480156104ca575f80fd5b506104e560048036038101906104e0919061244a565b6112a1565b6040516104f29190612195565b60405180910390f35b348015610506575f80fd5b50610521600480360381019061051c91906123f0565b611352565b005b34801561052e575f80fd5b506105376114fd565b6040516105449190612195565b60405180910390f35b348015610558575f80fd5b50610573600480360381019061056e9190612253565b61158d565b60405161058091906122ab565b60405180910390f35b348015610594575f80fd5b506105af60048036038101906105aa91906123f0565b6115af565b005b3480156105bc575f80fd5b506105d760048036038101906105d29190612996565b611790565b6040516105e49190612507565b60405180910390f35b3480156105f8575f80fd5b50610613600480360381019061060e91906129d4565b611812565b005b348015610620575f80fd5b5061063b60048036038101906106369190612853565b6118fa565b005b60606003805461064c90612a77565b80601f016020809104026020016040519081016040528092919081815260200182805461067890612a77565b80156106c35780601f1061069a576101008083540402835291602001916106c3565b820191905f5260205f20905b8154815290600101906020018083116106a657829003601f168201915b5050505050905090565b5f806106d761197e565b90506106e4818585611985565b600191505092915050565b5f73ffffffffffffffffffffffffffffffffffffffff166006836040516107169190612ae1565b90815260200160405180910390205f015f9054906101000a900473ffffffffffffffffffffffffffffffffffffffff1673ffffffffffffffffffffffffffffffffffffffff160361079c576040517f08c379a000000000000000000000000000000000000000000000000000000000815260040161079390612b41565b60405180910390fd5b5f6006836040516107ad9190612ae1565b908152602001604051809103902060020154826107ca9190612b8c565b90508034101561080f576040517f08c379a000000000000000000000000000000000000000000000000000000000815260040161080690612c17565b60405180910390fd5b816006846040516108209190612ae1565b9081526020016040518091039020600401541015610873576040517f08c379a000000000000000000000000000000000000000000000000000000000815260040161086a90612c7f565b60405180910390fd5b816006846040516108849190612ae1565b90815260200160405180910390206004015f8282546108a39190612c9d565b925050819055506108b5303384611997565b5f6064600854346108c69190612b8c565b6108d09190612cfd565b90505f81346108df9190612c9d565b90506006856040516108f19190612ae1565b90815260200160405180910390205f015f9054906101000a900473ffffffffffffffffffffffffffffffffffffffff1673ffffffffffffffffffffffffffffffffffffffff166108fc8290811502906040515f60405180830381858888f19350505050158015610963573d5f803e3d5ffd5b5061096c611279565b73ffffffffffffffffffffffffffffffffffffffff166108fc8390811502906040515f60405180830381858888f193505050501580156109ae573d5f803e3d5ffd5b505050505050565b6006818051602081018201805184825260208301602085012081835280955050505050505f91509050805f015f9054906101000a900473ffffffffffffffffffffffffffffffffffffffff1690806001015490806002015490806003018054610a1e90612a77565b80601f0160208091040260200160405190810160405280929190818152602001828054610a4a90612a77565b8015610a955780601f10610a6c57610100808354040283529160200191610a95565b820191905f5260205f20905b815481529060010190602001808311610a7857829003601f168201915b5050505050908060040154905085565b5f600254905090565b5f80610ab861197e565b9050610ac5858285611a87565b610ad0858585611997565b60019150509392505050565b5f6012905090565b610aec611b19565b5f73ffffffffffffffffffffffffffffffffffffffff16600683604051610b139190612ae1565b90815260200160405180910390205f015f9054906101000a900473ffffffffffffffffffffffffffffffffffffffff1673ffffffffffffffffffffffffffffffffffffffff1603610b99576040517f08c379a0000000000000000000000000000000000000000000000000000000008152600401610b9090612b41565b60405180910390fd5b80610ba333611010565b1015610be4576040517f08c379a0000000000000000000000000000000000000000000000000000000008152600401610bdb90612d77565b60405180910390fd5b610bef333083611997565b80600683604051610c009190612ae1565b90815260200160405180910390206004015f828254610c1f9190612d95565b925050819055505050565b5f600682604051610c3b9190612ae1565b9081526020016040518091039020600201549050919050565b60078181548110610c63575f80fd5b905f5260205f20015f915090508054610c7b90612a77565b80601f0160208091040260200160405190810160405280929190818152602001828054610ca790612a77565b8015610cf25780601f10610cc957610100808354040283529160200191610cf2565b820191905f5260205f20905b815481529060010190602001808311610cd557829003601f168201915b505050505081565b6060805f60078054905067ffffffffffffffff811115610d1d57610d1c6122cc565b5b604051908082528060200260200182016040528015610d5657816020015b610d436120ca565b815260200190600190039081610d3b5790505b5090505f5b600780549050811015610edf57600660078281548110610d7e57610d7d612dc8565b5b905f5260205f2001604051610d939190612e87565b90815260200160405180910390206040518060a00160405290815f82015f9054906101000a900473ffffffffffffffffffffffffffffffffffffffff1673ffffffffffffffffffffffffffffffffffffffff1673ffffffffffffffffffffffffffffffffffffffff1681526020016001820154815260200160028201548152602001600382018054610e2490612a77565b80601f0160208091040260200160405190810160405280929190818152602001828054610e5090612a77565b8015610e9b5780601f10610e7257610100808354040283529160200191610e9b565b820191905f5260205f20905b815481529060010190602001808311610e7e57829003601f168201915b50505050508152602001600482015481525050828281518110610ec157610ec0612dc8565b5b60200260200101819052508080610ed790612e9d565b915050610d5b565b5060078181805480602002602001604051908101604052809291908181526020015f905b82821015610fab578382905f5260205f20018054610f2090612a77565b80601f0160208091040260200160405190810160405280929190818152602001828054610f4c90612a77565b8015610f975780601f10610f6e57610100808354040283529160200191610f97565b820191905f5260205f20905b815481529060010190602001808311610f7a57829003601f168201915b505050505081526020019060010190610f03565b50505050915092509250509091565b610fc2611b19565b6064811115611006576040517f08c379a0000000000000000000000000000000000000000000000000000000008152600401610ffd90612f2e565b60405180910390fd5b8060088190555050565b5f805f8373ffffffffffffffffffffffffffffffffffffffff1673ffffffffffffffffffffffffffffffffffffffff1681526020019081526020015f20549050919050565b61105d611b19565b6110665f611ba0565b565b611070611b19565b5f73ffffffffffffffffffffffffffffffffffffffff166006866040516110979190612ae1565b90815260200160405180910390205f015f9054906101000a900473ffffffffffffffffffffffffffffffffffffffff1673ffffffffffffffffffffffffffffffffffffffff160361111d576040517f08c379a000000000000000000000000000000000000000000000000000000000815260040161111490612b41565b60405180910390fd5b6103e88183858761112e9190612d95565b6111389190612d95565b6111429190612d95565b61114c9190612cfd565b60068660405161115c9190612ae1565b9081526020016040518091039020600201819055505050505050565b611180611b19565b5f73ffffffffffffffffffffffffffffffffffffffff166006846040516111a79190612ae1565b90815260200160405180910390205f015f9054906101000a900473ffffffffffffffffffffffffffffffffffffffff1673ffffffffffffffffffffffffffffffffffffffff160361122d576040517f08c379a000000000000000000000000000000000000000000000000000000000815260040161122490612b41565b60405180910390fd5b6112378282611c63565b806006846040516112489190612ae1565b90815260200160405180910390206001015f8282546112679190612d95565b92505081905550505050565b60085481565b5f60055f9054906101000a900473ffffffffffffffffffffffffffffffffffffffff16905090565b60606006826040516112b39190612ae1565b908152602001604051809103902060030180546112cf90612a77565b80601f01602080910402602001604051908101604052809291908181526020018280546112fb90612a77565b80156113465780601f1061131d57610100808354040283529160200191611346565b820191905f5260205f20905b81548152906001019060200180831161132957829003601f168201915b50505050509050919050565b5f73ffffffffffffffffffffffffffffffffffffffff166006836040516113799190612ae1565b90815260200160405180910390205f015f9054906101000a900473ffffffffffffffffffffffffffffffffffffffff1673ffffffffffffffffffffffffffffffffffffffff16036113ff576040517f08c379a00000000000000000000000000000000000000000000000000000000081526004016113f690612b41565b60405180910390fd5b5f6006836040516114109190612ae1565b9081526020016040518091039020600201548261142d9190612b8c565b905080471015611472576040517f08c379a000000000000000000000000000000000000000000000000000000000815260040161146990612f96565b60405180910390fd5b816006846040516114839190612ae1565b90815260200160405180910390206004015f8282546114a29190612d95565b925050819055506114b4333084611997565b3373ffffffffffffffffffffffffffffffffffffffff166108fc8290811502906040515f60405180830381858888f193505050501580156114f7573d5f803e3d5ffd5b50505050565b60606004805461150c90612a77565b80601f016020809104026020016040519081016040528092919081815260200182805461153890612a77565b80156115835780601f1061155a57610100808354040283529160200191611583565b820191905f5260205f20905b81548152906001019060200180831161156657829003601f168201915b5050505050905090565b5f8061159761197e565b90506115a4818585611997565b600191505092915050565b6115b7611b19565b5f73ffffffffffffffffffffffffffffffffffffffff166006836040516115de9190612ae1565b90815260200160405180910390205f015f9054906101000a900473ffffffffffffffffffffffffffffffffffffffff1673ffffffffffffffffffffffffffffffffffffffff1614611664576040517f08c379a000000000000000000000000000000000000000000000000000000000815260040161165b90612ffe565b60405180910390fd5b6040518060a001604052803373ffffffffffffffffffffffffffffffffffffffff168152602001828152602001670de0b6b3a7640000815260200160405180602001604052805f81525081526020015f8152506006836040516116c79190612ae1565b90815260200160405180910390205f820151815f015f6101000a81548173ffffffffffffffffffffffffffffffffffffffff021916908373ffffffffffffffffffffffffffffffffffffffff1602179055506020820151816001015560408201518160020155606082015181600301908161174291906131a7565b5060808201518160040155905050600782908060018154018082558091505060019003905f5260205f20015f90919091909150908161178191906131a7565b5061178c3382611c63565b5050565b5f60015f8473ffffffffffffffffffffffffffffffffffffffff1673ffffffffffffffffffffffffffffffffffffffff1681526020019081526020015f205f8373ffffffffffffffffffffffffffffffffffffffff1673ffffffffffffffffffffffffffffffffffffffff1681526020019081526020015f2054905092915050565b61181a611b19565b5f73ffffffffffffffffffffffffffffffffffffffff166006836040516118419190612ae1565b90815260200160405180910390205f015f9054906101000a900473ffffffffffffffffffffffffffffffffffffffff1673ffffffffffffffffffffffffffffffffffffffff16036118c7576040517f08c379a00000000000000000000000000000000000000000000000000000000081526004016118be90612b41565b60405180910390fd5b806006836040516118d89190612ae1565b908152602001604051809103902060030190816118f591906131a7565b505050565b611902611b19565b5f73ffffffffffffffffffffffffffffffffffffffff168173ffffffffffffffffffffffffffffffffffffffff1603611972575f6040517f1e4fbdf7000000000000000000000000000000000000000000000000000000008152600401611969919061297d565b60405180910390fd5b61197b81611ba0565b50565b5f33905090565b6119928383836001611ce2565b505050565b5f73ffffffffffffffffffffffffffffffffffffffff168373ffffffffffffffffffffffffffffffffffffffff1603611a07575f6040517f96c6fd1e0000000000000000000000000000000000000000000000000000000081526004016119fe919061297d565b60405180910390fd5b5f73ffffffffffffffffffffffffffffffffffffffff168273ffffffffffffffffffffffffffffffffffffffff1603611a77575f6040517fec442f05000000000000000000000000000000000000000000000000000000008152600401611a6e919061297d565b60405180910390fd5b611a82838383611eb1565b505050565b5f611a928484611790565b90507fffffffffffffffffffffffffffffffffffffffffffffffffffffffffffffffff8114611b135781811015611b04578281836040517ffb8f41b2000000000000000000000000000000000000000000000000000000008152600401611afb93929190613276565b60405180910390fd5b611b1284848484035f611ce2565b5b50505050565b611b2161197e565b73ffffffffffffffffffffffffffffffffffffffff16611b3f611279565b73ffffffffffffffffffffffffffffffffffffffff1614611b9e57611b6261197e565b6040517f118cdaa7000000000000000000000000000000000000000000000000000000008152600401611b95919061297d565b60405180910390fd5b565b5f60055f9054906101000a900473ffffffffffffffffffffffffffffffffffffffff1690508160055f6101000a81548173ffffffffffffffffffffffffffffffffffffffff021916908373ffffffffffffffffffffffffffffffffffffffff1602179055508173ffffffffffffffffffffffffffffffffffffffff168173ffffffffffffffffffffffffffffffffffffffff167f8be0079c531659141344cd1fd0a4f28419497f9722a3daafe3b4186f6b6457e060405160405180910390a35050565b5f73ffffffffffffffffffffffffffffffffffffffff168273ffffffffffffffffffffffffffffffffffffffff1603611cd3575f6040517fec442f05000000000000000000000000000000000000000000000000000000008152600401611cca919061297d565b60405180910390fd5b611cde5f8383611eb1565b5050565b5f73ffffffffffffffffffffffffffffffffffffffff168473ffffffffffffffffffffffffffffffffffffffff1603611d52575f6040517fe602df05000000000000000000000000000000000000000000000000000000008152600401611d49919061297d565b60405180910390fd5b5f73ffffffffffffffffffffffffffffffffffffffff168373ffffffffffffffffffffffffffffffffffffffff1603611dc2575f6040517f94280d62000000000000000000000000000000000000000000000000000000008152600401611db9919061297d565b60405180910390fd5b8160015f8673ffffffffffffffffffffffffffffffffffffffff1673ffffffffffffffffffffffffffffffffffffffff1681526020019081526020015f205f8573ffffffffffffffffffffffffffffffffffffffff1673ffffffffffffffffffffffffffffffffffffffff1681526020019081526020015f20819055508015611eab578273ffffffffffffffffffffffffffffffffffffffff168473ffffffffffffffffffffffffffffffffffffffff167f8c5be1e5ebec7d5bd14f71427d1e84f3dd0314c0f7b2291e5b200ac8c7c3b92584604051611ea29190612507565b60405180910390a35b50505050565b5f73ffffffffffffffffffffffffffffffffffffffff168373ffffffffffffffffffffffffffffffffffffffff1603611f01578060025f828254611ef59190612d95565b92505081905550611fcf565b5f805f8573ffffffffffffffffffffffffffffffffffffffff1673ffffffffffffffffffffffffffffffffffffffff1681526020019081526020015f2054905081811015611f8a578381836040517fe450d38c000000000000000000000000000000000000000000000000000000008152600401611f8193929190613276565b60405180910390fd5b8181035f808673ffffffffffffffffffffffffffffffffffffffff1673ffffffffffffffffffffffffffffffffffffffff1681526020019081526020015f2081905550505b5f73ffffffffffffffffffffffffffffffffffffffff168273ffffffffffffffffffffffffffffffffffffffff1603612016578060025f8282540392505081905550612060565b805f808473ffffffffffffffffffffffffffffffffffffffff1673ffffffffffffffffffffffffffffffffffffffff1681526020019081526020015f205f82825401925050819055505b8173ffffffffffffffffffffffffffffffffffffffff168373ffffffffffffffffffffffffffffffffffffffff167fddf252ad1be2c89b69c2b068fc378daa952ba7f163c4a11628f55a4df523b3ef836040516120bd9190612507565b60405180910390a3505050565b6040518060a001604052805f73ffffffffffffffffffffffffffffffffffffffff1681526020015f81526020015f8152602001606081526020015f81525090565b5f81519050919050565b5f82825260208201905092915050565b5f5b83811015612142578082015181840152602081019050612127565b5f8484015250505050565b5f601f19601f8301169050919050565b5f6121678261210b565b6121718185612115565b9350612181818560208601612125565b61218a8161214d565b840191505092915050565b5f6020820190508181035f8301526121ad818461215d565b905092915050565b5f604051905090565b5f80fd5b5f80fd5b5f73ffffffffffffffffffffffffffffffffffffffff82169050919050565b5f6121ef826121c6565b9050919050565b6121ff816121e5565b8114612209575f80fd5b50565b5f8135905061221a816121f6565b92915050565b5f819050919050565b61223281612220565b811461223c575f80fd5b50565b5f8135905061224d81612229565b92915050565b5f8060408385031215612269576122686121be565b5b5f6122768582860161220c565b92505060206122878582860161223f565b9150509250929050565b5f8115159050919050565b6122a581612291565b82525050565b5f6020820190506122be5f83018461229c565b92915050565b5f80fd5b5f80fd5b7f4e487b71000000000000000000000000000000000000000000000000000000005f52604160045260245ffd5b6123028261214d565b810181811067ffffffffffffffff82111715612321576123206122cc565b5b80604052505050565b5f6123336121b5565b905061233f82826122f9565b919050565b5f67ffffffffffffffff82111561235e5761235d6122cc565b5b6123678261214d565b9050602081019050919050565b828183375f83830152505050565b5f61239461238f84612344565b61232a565b9050828152602081018484840111156123b0576123af6122c8565b5b6123bb848285612374565b509392505050565b5f82601f8301126123d7576123d66122c4565b5b81356123e7848260208601612382565b91505092915050565b5f8060408385031215612406576124056121be565b5b5f83013567ffffffffffffffff811115612423576124226121c2565b5b61242f858286016123c3565b92505060206124408582860161223f565b9150509250929050565b5f6020828403121561245f5761245e6121be565b5b5f82013567ffffffffffffffff81111561247c5761247b6121c2565b5b612488848285016123c3565b91505092915050565b61249a816121e5565b82525050565b6124a981612220565b82525050565b5f60a0820190506124c25f830188612491565b6124cf60208301876124a0565b6124dc60408301866124a0565b81810360608301526124ee818561215d565b90506124fd60808301846124a0565b9695505050505050565b5f60208201905061251a5f8301846124a0565b92915050565b5f805f60608486031215612537576125366121be565b5b5f6125448682870161220c565b93505060206125558682870161220c565b92505060406125668682870161223f565b9150509250925092565b5f60ff82169050919050565b61258581612570565b82525050565b5f60208201905061259e5f83018461257c565b92915050565b5f602082840312156125b9576125b86121be565b5b5f6125c68482850161223f565b91505092915050565b5f81519050919050565b5f82825260208201905092915050565b5f819050602082019050919050565b5f82825260208201905092915050565b5f6126128261210b565b61261c81856125f8565b935061262c818560208601612125565b6126358161214d565b840191505092915050565b5f61264b8383612608565b905092915050565b5f602082019050919050565b5f612669826125cf565b61267381856125d9565b935083602082028501612685856125e9565b805f5b858110156126c057848403895281516126a18582612640565b94506126ac83612653565b925060208a01995050600181019050612688565b50829750879550505050505092915050565b5f81519050919050565b5f82825260208201905092915050565b5f819050602082019050919050565b612704816121e5565b82525050565b61271381612220565b82525050565b5f60a083015f83015161272e5f8601826126fb565b506020830151612741602086018261270a565b506040830151612754604086018261270a565b506060830151848203606086015261276c8282612608565b9150506080830151612781608086018261270a565b508091505092915050565b5f6127978383612719565b905092915050565b5f602082019050919050565b5f6127b5826126d2565b6127bf81856126dc565b9350836020820285016127d1856126ec565b805f5b8581101561280c57848403895281516127ed858261278c565b94506127f88361279f565b925060208a019950506001810190506127d4565b50829750879550505050505092915050565b5f6040820190508181035f830152612836818561265f565b9050818103602083015261284a81846127ab565b90509392505050565b5f60208284031215612868576128676121be565b5b5f6128758482850161220c565b91505092915050565b5f805f805f60a08688031215612897576128966121be565b5b5f86013567ffffffffffffffff8111156128b4576128b36121c2565b5b6128c0888289016123c3565b95505060206128d18882890161223f565b94505060406128e28882890161223f565b93505060606128f38882890161223f565b92505060806129048882890161223f565b9150509295509295909350565b5f805f60608486031215612928576129276121be565b5b5f84013567ffffffffffffffff811115612945576129446121c2565b5b612951868287016123c3565b93505060206129628682870161220c565b92505060406129738682870161223f565b9150509250925092565b5f6020820190506129905f830184612491565b92915050565b5f80604083850312156129ac576129ab6121be565b5b5f6129b98582860161220c565b92505060206129ca8582860161220c565b9150509250929050565b5f80604083850312156129ea576129e96121be565b5b5f83013567ffffffffffffffff811115612a0757612a066121c2565b5b612a13858286016123c3565b925050602083013567ffffffffffffffff811115612a3457612a336121c2565b5b612a40858286016123c3565b9150509250929050565b7f4e487b71000000000000000000000000000000000000000000000000000000005f52602260045260245ffd5b5f6002820490506001821680612a8e57607f821691505b602082108103612aa157612aa0612a4a565b5b50919050565b5f81905092915050565b5f612abb8261210b565b612ac58185612aa7565b9350612ad5818560208601612125565b80840191505092915050565b5f612aec8284612ab1565b915081905092915050565b7f4368616e6e656c206e6f742072656769737465726564000000000000000000005f82015250565b5f612b2b601683612115565b9150612b3682612af7565b602082019050919050565b5f6020820190508181035f830152612b5881612b1f565b9050919050565b7f4e487b71000000000000000000000000000000000000000000000000000000005f52601160045260245ffd5b5f612b9682612220565b9150612ba183612220565b9250828202612baf81612220565b91508282048414831517612bc657612bc5612b5f565b5b5092915050565b7f496e73756666696369656e742066756e647300000000000000000000000000005f82015250565b5f612c01601283612115565b9150612c0c82612bcd565b602082019050919050565b5f6020820190508181035f830152612c2e81612bf5565b9050919050565b7f496e73756666696369656e74206c6971756964697479000000000000000000005f82015250565b5f612c69601683612115565b9150612c7482612c35565b602082019050919050565b5f6020820190508181035f830152612c9681612c5d565b9050919050565b5f612ca782612220565b9150612cb283612220565b9250828203905081811115612cca57612cc9612b5f565b5b92915050565b7f4e487b71000000000000000000000000000000000000000000000000000000005f52601260045260245ffd5b5f612d0782612220565b9150612d1283612220565b925082612d2257612d21612cd0565b5b828204905092915050565b7f496e73756666696369656e7420746f6b656e2062616c616e63650000000000005f82015250565b5f612d61601a83612115565b9150612d6c82612d2d565b602082019050919050565b5f6020820190508181035f830152612d8e81612d55565b9050919050565b5f612d9f82612220565b9150612daa83612220565b9250828201905080821115612dc257612dc1612b5f565b5b92915050565b7f4e487b71000000000000000000000000000000000000000000000000000000005f52603260045260245ffd5b5f819050815f5260205f209050919050565b5f8154612e1381612a77565b612e1d8186612aa7565b9450600182165f8114612e375760018114612e4c57612e7e565b60ff1983168652811515820286019350612e7e565b612e5585612df5565b5f5b83811015612e7657815481890152600182019150602081019050612e57565b838801955050505b50505092915050565b5f612e928284612e07565b915081905092915050565b5f612ea782612220565b91507fffffffffffffffffffffffffffffffffffffffffffffffffffffffffffffffff8203612ed957612ed8612b5f565b5b600182019050919050565b7f50657263656e746167652063616e6e6f742065786365656420313030000000005f82015250565b5f612f18601c83612115565b9150612f2382612ee4565b602082019050919050565b5f6020820190508181035f830152612f4581612f0c565b9050919050565b7f496e73756666696369656e7420636f6e74726163742062616c616e63650000005f82015250565b5f612f80601d83612115565b9150612f8b82612f4c565b602082019050919050565b5f6020820190508181035f830152612fad81612f74565b9050919050565b7f4368616e6e656c20616c726561647920726567697374657265640000000000005f82015250565b5f612fe8601a83612115565b9150612ff382612fb4565b602082019050919050565b5f6020820190508181035f83015261301581612fdc565b9050919050565b5f6020601f8301049050919050565b5f82821b905092915050565b5f600883026130667fffffffffffffffffffffffffffffffffffffffffffffffffffffffffffffffff8261302b565b613070868361302b565b95508019841693508086168417925050509392505050565b5f819050919050565b5f6130ab6130a66130a184612220565b613088565b612220565b9050919050565b5f819050919050565b6130c483613091565b6130d86130d0826130b2565b848454613037565b825550505050565b5f90565b6130ec6130e0565b6130f78184846130bb565b505050565b5b8181101561311a5761310f5f826130e4565b6001810190506130fd565b5050565b601f82111561315f5761313081612df5565b6131398461301c565b81016020851015613148578190505b61315c6131548561301c565b8301826130fc565b50505b505050565b5f82821c905092915050565b5f61317f5f1984600802613164565b1980831691505092915050565b5f6131978383613170565b9150826002028217905092915050565b6131b08261210b565b67ffffffffffffffff8111156131c9576131c86122cc565b5b6131d38254612a77565b6131de82828561311e565b5f60209050601f83116001811461320f575f84156131fd578287015190505b613207858261318c565b86555061326e565b601f19841661321d86612df5565b5f5b828110156132445784890151825560018201915060208501945060208101905061321f565b86831015613261578489015161325d601f891682613170565b8355505b6001600288020188555050505b505050505050565b5f6060820190506132895f830186612491565b61329660208301856124a0565b6132a360408301846124a0565b94935050505056fea264697066735822122070d4eb8e048984a79328723d72e3e8ae760ec6f659fbceaabc8c61e560c53d1d64736f6c63430008140033",
  "immutableReferences": {},
  "source": "// SPDX-License-Identifier: MIT\r\npragma solidity ^0.8.0;\r\n\r\nimport \"@openzeppelin/contracts/token/ERC20/ERC20.sol\";\r\nimport \"@openzeppelin/contracts/access/Ownable.sol\";\r\nimport \"@openzeppelin/contracts/token/ERC20/IERC20.sol\";\r\n\r\ncontract YouTubeToken is ERC20, Ownable {\r\n    struct ChannelData {\r\n        address owner;\r\n        uint256 tokenSupply;\r\n        uint256 tokenPrice;\r\n        string dataCID;\r\n        uint256 liquidity; // Store liquidity for the channel\r\n    }\r\n\r\n    mapping(string => ChannelData) public channels;\r\n    string[] public channelIds;\r\n\r\n    uint256 public royaltyPercentage = 5;\r\n\r\n    constructor(address initialOwner) ERC20(\"YouTubeToken\", \"YTT\") Ownable(initialOwner) {}\r\n\r\n    // Function to register a new YouTube channel with tokens\r\n    function registerChannel(string memory channelId, uint256 initialSupply) external onlyOwner {\r\n        require(channels[channelId].owner == address(0), \"Channel already registered\");\r\n        channels[channelId] = ChannelData({\r\n            owner: msg.sender,\r\n            tokenSupply: initialSupply,\r\n            tokenPrice: 1 ether, // Default token price, adjust as needed\r\n            dataCID: \"\",\r\n            liquidity: 0\r\n        });\r\n        channelIds.push(channelId);\r\n        _mint(msg.sender, initialSupply);\r\n    }\r\n\r\n    // Function to update token price based on metrics\r\n    function updateTokenPrice(string memory channelId, uint256 subscribers, uint256 views, uint256 likes, uint256 comments) public onlyOwner {\r\n        require(channels[channelId].owner != address(0), \"Channel not registered\");\r\n        // Example pricing algorithm based on engagement metrics\r\n        channels[channelId].tokenPrice = (subscribers + views + likes + comments) / 1000;\r\n    }\r\n\r\n    // Function to update the CID of the latest engagement data\r\n    function updateDataCID(string memory channelId, string memory _cid) public onlyOwner {\r\n        require(channels[channelId].owner != address(0), \"Channel not registered\");\r\n        channels[channelId].dataCID = _cid;\r\n    }\r\n\r\n    // Function to add liquidity to a channel\r\n    function addLiquidity(string memory channelId, uint256 amount) public onlyOwner {\r\n        require(channels[channelId].owner != address(0), \"Channel not registered\");\r\n        require(balanceOf(msg.sender) >= amount, \"Insufficient token balance\");\r\n        _transfer(msg.sender, address(this), amount);\r\n        channels[channelId].liquidity += amount;\r\n    }\r\n\r\n    // Function to buy tokens\r\n    function buyToken(string memory channelId, uint256 amount) external payable {\r\n        require(channels[channelId].owner != address(0), \"Channel not registered\");\r\n        uint256 totalCost = amount * channels[channelId].tokenPrice;\r\n        require(msg.value >= totalCost, \"Insufficient funds\");\r\n        require(channels[channelId].liquidity >= amount, \"Insufficient liquidity\");\r\n\r\n        channels[channelId].liquidity -= amount;\r\n        _transfer(address(this), msg.sender, amount);\r\n\r\n        uint256 royaltyAmount = (msg.value * royaltyPercentage) / 100;\r\n        uint256 ownerAmount = msg.value - royaltyAmount;\r\n        payable(channels[channelId].owner).transfer(ownerAmount);\r\n        payable(owner()).transfer(royaltyAmount); // Transfer royalty to contract owner\r\n    }\r\n\r\n    // Function to sell tokens\r\n    function sellToken(string memory channelId, uint256 amount) external {\r\n        require(channels[channelId].owner != address(0), \"Channel not registered\");\r\n        uint256 totalCost = amount * channels[channelId].tokenPrice;\r\n        require(address(this).balance >= totalCost, \"Insufficient contract balance\");\r\n\r\n        channels[channelId].liquidity += amount;\r\n        _transfer(msg.sender, address(this), amount);\r\n        payable(msg.sender).transfer(totalCost);\r\n    }\r\n\r\n    // Function to set the royalty percentage\r\n    function setRoyaltyPercentage(uint256 _percentage) public onlyOwner {\r\n        require(_percentage <= 100, \"Percentage cannot exceed 100\");\r\n        royaltyPercentage = _percentage;\r\n    }\r\n\r\n    // Function to mint new tokens\r\n    function mint(string memory channelId, address to, uint256 amount) external onlyOwner {\r\n        require(channels[channelId].owner != address(0), \"Channel not registered\");\r\n        _mint(to, amount);\r\n        channels[channelId].tokenSupply += amount;\r\n    }\r\n\r\n    // Function to get all channel data\r\n    function getAllChannels() public view returns (string[] memory, ChannelData[] memory) {\r\n        ChannelData[] memory allChannelData = new ChannelData[](channelIds.length);\r\n        for (uint256 i = 0; i < channelIds.length; i++) {\r\n            allChannelData[i] = channels[channelIds[i]];\r\n        }\r\n        return (channelIds, allChannelData);\r\n    }\r\n\r\n    // Function to get the latest CID for a channel\r\n    function getLatestDataCID(string memory channelId) public view returns (string memory) {\r\n        return channels[channelId].dataCID;\r\n    }\r\n\r\n    // Function to get the token price for a specific channel\r\n    function getTokenPrice(string memory channelId) public view returns (uint256) {\r\n        return channels[channelId].tokenPrice;\r\n    }\r\n}\r\n",
  "sourcePath": "C:\\Users\\sarth\\OneDrive\\Desktop\\eth\\engagecoin\\backend\\youtube-token\\contracts\\YouTubeToken.sol",
  "compiler": {
    "name": "solc",
    "version": "0.8.20+commit.a1b79de6.Emscripten.clang"
  },
  "schemaVersion": "3.4.16",
  "updatedAt": "2024-08-09T09:52:27.254Z",
  "networkType": "ethereum",
  "devdoc": {
    "errors": {
      "ERC20InsufficientAllowance(address,uint256,uint256)": [
        {
          "details": "Indicates a failure with the `spender`s `allowance`. Used in transfers.",
          "params": {
            "allowance": "Amount of tokens a `spender` is allowed to operate with.",
            "needed": "Minimum amount required to perform a transfer.",
            "spender": "Address that may be allowed to operate on tokens without being their owner."
          }
        }
      ],
      "ERC20InsufficientBalance(address,uint256,uint256)": [
        {
          "details": "Indicates an error related to the current `balance` of a `sender`. Used in transfers.",
          "params": {
            "balance": "Current balance for the interacting account.",
            "needed": "Minimum amount required to perform a transfer.",
            "sender": "Address whose tokens are being transferred."
          }
        }
      ],
      "ERC20InvalidApprover(address)": [
        {
          "details": "Indicates a failure with the `approver` of a token to be approved. Used in approvals.",
          "params": {
            "approver": "Address initiating an approval operation."
          }
        }
      ],
      "ERC20InvalidReceiver(address)": [
        {
          "details": "Indicates a failure with the token `receiver`. Used in transfers.",
          "params": {
            "receiver": "Address to which tokens are being transferred."
          }
        }
      ],
      "ERC20InvalidSender(address)": [
        {
          "details": "Indicates a failure with the token `sender`. Used in transfers.",
          "params": {
            "sender": "Address whose tokens are being transferred."
          }
        }
      ],
      "ERC20InvalidSpender(address)": [
        {
          "details": "Indicates a failure with the `spender` to be approved. Used in approvals.",
          "params": {
            "spender": "Address that may be allowed to operate on tokens without being their owner."
          }
        }
      ],
      "OwnableInvalidOwner(address)": [
        {
          "details": "The owner is not a valid owner account. (eg. `address(0)`)"
        }
      ],
      "OwnableUnauthorizedAccount(address)": [
        {
          "details": "The caller account is not authorized to perform an operation."
        }
      ]
    },
    "events": {
      "Approval(address,address,uint256)": {
        "details": "Emitted when the allowance of a `spender` for an `owner` is set by a call to {approve}. `value` is the new allowance."
      },
      "Transfer(address,address,uint256)": {
        "details": "Emitted when `value` tokens are moved from one account (`from`) to another (`to`). Note that `value` may be zero."
      }
    },
    "kind": "dev",
    "methods": {
      "allowance(address,address)": {
        "details": "See {IERC20-allowance}."
      },
      "approve(address,uint256)": {
        "details": "See {IERC20-approve}. NOTE: If `value` is the maximum `uint256`, the allowance is not updated on `transferFrom`. This is semantically equivalent to an infinite approval. Requirements: - `spender` cannot be the zero address."
      },
      "balanceOf(address)": {
        "details": "See {IERC20-balanceOf}."
      },
      "decimals()": {
        "details": "Returns the number of decimals used to get its user representation. For example, if `decimals` equals `2`, a balance of `505` tokens should be displayed to a user as `5.05` (`505 / 10 ** 2`). Tokens usually opt for a value of 18, imitating the relationship between Ether and Wei. This is the default value returned by this function, unless it's overridden. NOTE: This information is only used for _display_ purposes: it in no way affects any of the arithmetic of the contract, including {IERC20-balanceOf} and {IERC20-transfer}."
      },
      "name()": {
        "details": "Returns the name of the token."
      },
      "owner()": {
        "details": "Returns the address of the current owner."
      },
      "renounceOwnership()": {
        "details": "Leaves the contract without owner. It will not be possible to call `onlyOwner` functions. Can only be called by the current owner. NOTE: Renouncing ownership will leave the contract without an owner, thereby disabling any functionality that is only available to the owner."
      },
      "symbol()": {
        "details": "Returns the symbol of the token, usually a shorter version of the name."
      },
      "totalSupply()": {
        "details": "See {IERC20-totalSupply}."
      },
      "transfer(address,uint256)": {
        "details": "See {IERC20-transfer}. Requirements: - `to` cannot be the zero address. - the caller must have a balance of at least `value`."
      },
      "transferFrom(address,address,uint256)": {
        "details": "See {IERC20-transferFrom}. Emits an {Approval} event indicating the updated allowance. This is not required by the EIP. See the note at the beginning of {ERC20}. NOTE: Does not update the allowance if the current allowance is the maximum `uint256`. Requirements: - `from` and `to` cannot be the zero address. - `from` must have a balance of at least `value`. - the caller must have allowance for ``from``'s tokens of at least `value`."
      },
      "transferOwnership(address)": {
        "details": "Transfers ownership of the contract to a new account (`newOwner`). Can only be called by the current owner."
      }
    },
    "version": 1
  },
  "userdoc": {
    "kind": "user",
    "methods": {},
    "version": 1
  }
}